{
	"UserManager.sol": {
		"UserManager": {
			"abi": [
				{
					"inputs": [
						{
							"internalType": "address",
							"name": "user",
							"type": "address"
						}
					],
					"name": "addUser",
					"outputs": [],
					"stateMutability": "nonpayable",
					"type": "function"
				},
				{
					"inputs": [],
					"name": "getUsers",
					"outputs": [
						{
							"internalType": "address[]",
							"name": "",
							"type": "address[]"
						}
					],
					"stateMutability": "view",
					"type": "function"
				},
				{
					"inputs": [
						{
							"internalType": "address",
							"name": "user",
							"type": "address"
						}
					],
					"name": "removeUser",
					"outputs": [],
					"stateMutability": "nonpayable",
					"type": "function"
				}
			],
			"devdoc": {
				"kind": "dev",
				"methods": {},
				"version": 1
			},
			"evm": {
				"assembly": "    /* \"UserManager.sol\":60:572  contract UserManager {... */\n  mstore(0x40, 0x80)\n  callvalue\n  dup1\n  iszero\n  tag_1\n  jumpi\n  0x00\n  dup1\n  revert\ntag_1:\n  pop\n  dataSize(sub_0)\n  dup1\n  dataOffset(sub_0)\n  0x00\n  codecopy\n  0x00\n  return\nstop\n\nsub_0: assembly {\n        /* \"UserManager.sol\":60:572  contract UserManager {... */\n      mstore(0x40, 0x80)\n      callvalue\n      dup1\n      iszero\n      tag_1\n      jumpi\n      0x00\n      dup1\n      revert\n    tag_1:\n      pop\n      jumpi(tag_2, lt(calldatasize, 0x04))\n      shr(0xe0, calldataload(0x00))\n      dup1\n      0xce8e3e\n      eq\n      tag_3\n      jumpi\n      dup1\n      0x421b2d8b\n      eq\n      tag_4\n      jumpi\n      dup1\n      0x98575188\n      eq\n      tag_5\n      jumpi\n    tag_2:\n      0x00\n      dup1\n      revert\n        /* \"UserManager.sol\":479:569  function getUsers() public view returns (address[] memory) {... */\n    tag_3:\n      tag_6\n      tag_7\n      jump\t// in\n    tag_6:\n      mload(0x40)\n      tag_8\n      swap2\n      swap1\n      tag_9\n      jump\t// in\n    tag_8:\n      mload(0x40)\n      dup1\n      swap2\n      sub\n      swap1\n      return\n        /* \"UserManager.sol\":120:193  function addUser(address user) public {... */\n    tag_4:\n      tag_10\n      0x04\n      dup1\n      calldatasize\n      sub\n      dup2\n      add\n      swap1\n      tag_11\n      swap2\n      swap1\n      tag_12\n      jump\t// in\n    tag_11:\n      tag_13\n      jump\t// in\n    tag_10:\n      stop\n        /* \"UserManager.sol\":201:471  function removeUser(address user) public {... */\n    tag_5:\n      tag_14\n      0x04\n      dup1\n      calldatasize\n      sub\n      dup2\n      add\n      swap1\n      tag_15\n      swap2\n      swap1\n      tag_12\n      jump\t// in\n    tag_15:\n      tag_16\n      jump\t// in\n    tag_14:\n      stop\n        /* \"UserManager.sol\":479:569  function getUsers() public view returns (address[] memory) {... */\n    tag_7:\n        /* \"UserManager.sol\":520:536  address[] memory */\n      0x60\n        /* \"UserManager.sol\":556:561  users */\n      0x00\n        /* \"UserManager.sol\":549:561  return users */\n      dup1\n      sload\n      dup1\n      0x20\n      mul\n      0x20\n      add\n      mload(0x40)\n      swap1\n      dup2\n      add\n      0x40\n      mstore\n      dup1\n      swap3\n      swap2\n      swap1\n      dup2\n      dup2\n      mstore\n      0x20\n      add\n      dup3\n      dup1\n      sload\n      dup1\n      iszero\n      tag_18\n      jumpi\n      0x20\n      mul\n      dup3\n      add\n      swap2\n      swap1\n      0x00\n      mstore\n      keccak256(0x00, 0x20)\n      swap1\n    tag_19:\n      dup2\n      0x00\n      swap1\n      sload\n      swap1\n      0x0100\n      exp\n      swap1\n      div\n      0xffffffffffffffffffffffffffffffffffffffff\n      and\n      0xffffffffffffffffffffffffffffffffffffffff\n      and\n      dup2\n      mstore\n      0x20\n      add\n      swap1\n      0x01\n      add\n      swap1\n      dup1\n      dup4\n      gt\n      tag_19\n      jumpi\n    tag_18:\n      pop\n      pop\n      pop\n      pop\n      pop\n      swap1\n      pop\n        /* \"UserManager.sol\":479:569  function getUsers() public view returns (address[] memory) {... */\n      swap1\n      jump\t// out\n        /* \"UserManager.sol\":120:193  function addUser(address user) public {... */\n    tag_13:\n        /* \"UserManager.sol\":169:174  users */\n      0x00\n        /* \"UserManager.sol\":180:184  user */\n      dup2\n        /* \"UserManager.sol\":169:185  users.push(user) */\n      swap1\n      dup1\n      0x01\n      dup2\n      sload\n      add\n      dup1\n      dup3\n      sstore\n      dup1\n      swap2\n      pop\n      pop\n      0x01\n      swap1\n      sub\n      swap1\n      0x00\n      mstore\n      keccak256(0x00, 0x20)\n      add\n      0x00\n      swap1\n      swap2\n      swap1\n      swap2\n      swap1\n      swap2\n      0x0100\n      exp\n      dup2\n      sload\n      dup2\n      0xffffffffffffffffffffffffffffffffffffffff\n      mul\n      not\n      and\n      swap1\n      dup4\n      0xffffffffffffffffffffffffffffffffffffffff\n      and\n      mul\n      or\n      swap1\n      sstore\n      pop\n        /* \"UserManager.sol\":120:193  function addUser(address user) public {... */\n      pop\n      jump\t// out\n        /* \"UserManager.sol\":201:471  function removeUser(address user) public {... */\n    tag_16:\n        /* \"UserManager.sol\":258:264  uint i */\n      0x00\n        /* \"UserManager.sol\":253:464  for (uint i = 0; i < users.length; i++) {... */\n    tag_23:\n        /* \"UserManager.sol\":274:279  users */\n      0x00\n        /* \"UserManager.sol\":274:286  users.length */\n      dup1\n      sload\n      swap1\n      pop\n        /* \"UserManager.sol\":270:271  i */\n      dup2\n        /* \"UserManager.sol\":270:286  i < users.length */\n      lt\n        /* \"UserManager.sol\":253:464  for (uint i = 0; i < users.length; i++) {... */\n      iszero\n      tag_24\n      jumpi\n        /* \"UserManager.sol\":324:328  user */\n      dup2\n        /* \"UserManager.sol\":312:328  users[i] == user */\n      0xffffffffffffffffffffffffffffffffffffffff\n      and\n        /* \"UserManager.sol\":312:317  users */\n      0x00\n        /* \"UserManager.sol\":318:319  i */\n      dup3\n        /* \"UserManager.sol\":312:320  users[i] */\n      dup2\n      sload\n      dup2\n      lt\n      tag_26\n      jumpi\n      tag_27\n      tag_28\n      jump\t// in\n    tag_27:\n    tag_26:\n      swap1\n      0x00\n      mstore\n      keccak256(0x00, 0x20)\n      add\n      0x00\n      swap1\n      sload\n      swap1\n      0x0100\n      exp\n      swap1\n      div\n      0xffffffffffffffffffffffffffffffffffffffff\n      and\n        /* \"UserManager.sol\":312:328  users[i] == user */\n      0xffffffffffffffffffffffffffffffffffffffff\n      and\n      sub\n        /* \"UserManager.sol\":308:453  if (users[i] == user) {... */\n      tag_30\n      jumpi\n        /* \"UserManager.sol\":360:365  users */\n      0x00\n        /* \"UserManager.sol\":381:382  1 */\n      0x01\n        /* \"UserManager.sol\":366:371  users */\n      0x00\n        /* \"UserManager.sol\":366:378  users.length */\n      dup1\n      sload\n      swap1\n      pop\n        /* \"UserManager.sol\":366:382  users.length - 1 */\n      tag_31\n      swap2\n      swap1\n      tag_32\n      jump\t// in\n    tag_31:\n        /* \"UserManager.sol\":360:383  users[users.length - 1] */\n      dup2\n      sload\n      dup2\n      lt\n      tag_33\n      jumpi\n      tag_34\n      tag_28\n      jump\t// in\n    tag_34:\n    tag_33:\n      swap1\n      0x00\n      mstore\n      keccak256(0x00, 0x20)\n      add\n      0x00\n      swap1\n      sload\n      swap1\n      0x0100\n      exp\n      swap1\n      div\n      0xffffffffffffffffffffffffffffffffffffffff\n      and\n        /* \"UserManager.sol\":349:354  users */\n      0x00\n        /* \"UserManager.sol\":355:356  i */\n      dup3\n        /* \"UserManager.sol\":349:357  users[i] */\n      dup2\n      sload\n      dup2\n      lt\n      tag_36\n      jumpi\n      tag_37\n      tag_28\n      jump\t// in\n    tag_37:\n    tag_36:\n      swap1\n      0x00\n      mstore\n      keccak256(0x00, 0x20)\n      add\n      0x00\n        /* \"UserManager.sol\":349:383  users[i] = users[users.length - 1] */\n      0x0100\n      exp\n      dup2\n      sload\n      dup2\n      0xffffffffffffffffffffffffffffffffffffffff\n      mul\n      not\n      and\n      swap1\n      dup4\n      0xffffffffffffffffffffffffffffffffffffffff\n      and\n      mul\n      or\n      swap1\n      sstore\n      pop\n        /* \"UserManager.sol\":402:407  users */\n      0x00\n        /* \"UserManager.sol\":402:413  users.pop() */\n      dup1\n      sload\n      dup1\n      tag_39\n      jumpi\n      tag_40\n      tag_41\n      jump\t// in\n    tag_40:\n    tag_39:\n      0x01\n      swap1\n      sub\n      dup2\n      dup2\n      swap1\n      0x00\n      mstore\n      keccak256(0x00, 0x20)\n      add\n      exp(0x0100, 0x00)\n      dup2\n      sload\n      swap1\n      0xffffffffffffffffffffffffffffffffffffffff\n      mul\n      not\n      and\n      swap1\n      sstore\n      swap1\n      sstore\n        /* \"UserManager.sol\":432:437  break */\n      jump(tag_24)\n        /* \"UserManager.sol\":308:453  if (users[i] == user) {... */\n    tag_30:\n        /* \"UserManager.sol\":288:291  i++ */\n      dup1\n      dup1\n      0x01\n      add\n      swap2\n      pop\n      pop\n        /* \"UserManager.sol\":253:464  for (uint i = 0; i < users.length; i++) {... */\n      jump(tag_23)\n    tag_24:\n      pop\n        /* \"UserManager.sol\":201:471  function removeUser(address user) public {... */\n      pop\n      jump\t// out\n        /* \"#utility.yul\":7:121   */\n    tag_43:\n        /* \"#utility.yul\":74:80   */\n      0x00\n        /* \"#utility.yul\":108:113   */\n      dup2\n        /* \"#utility.yul\":102:114   */\n      mload\n        /* \"#utility.yul\":92:114   */\n      swap1\n      pop\n        /* \"#utility.yul\":7:121   */\n      swap2\n      swap1\n      pop\n      jump\t// out\n        /* \"#utility.yul\":127:311   */\n    tag_44:\n        /* \"#utility.yul\":226:237   */\n      0x00\n        /* \"#utility.yul\":260:266   */\n      dup3\n        /* \"#utility.yul\":255:258   */\n      dup3\n        /* \"#utility.yul\":248:267   */\n      mstore\n        /* \"#utility.yul\":300:304   */\n      0x20\n        /* \"#utility.yul\":295:298   */\n      dup3\n        /* \"#utility.yul\":291:305   */\n      add\n        /* \"#utility.yul\":276:305   */\n      swap1\n      pop\n        /* \"#utility.yul\":127:311   */\n      swap3\n      swap2\n      pop\n      pop\n      jump\t// out\n        /* \"#utility.yul\":317:449   */\n    tag_45:\n        /* \"#utility.yul\":384:388   */\n      0x00\n        /* \"#utility.yul\":407:410   */\n      dup2\n        /* \"#utility.yul\":399:410   */\n      swap1\n      pop\n        /* \"#utility.yul\":437:441   */\n      0x20\n        /* \"#utility.yul\":432:435   */\n      dup3\n        /* \"#utility.yul\":428:442   */\n      add\n        /* \"#utility.yul\":420:442   */\n      swap1\n      pop\n        /* \"#utility.yul\":317:449   */\n      swap2\n      swap1\n      pop\n      jump\t// out\n        /* \"#utility.yul\":455:581   */\n    tag_46:\n        /* \"#utility.yul\":492:499   */\n      0x00\n        /* \"#utility.yul\":532:574   */\n      0xffffffffffffffffffffffffffffffffffffffff\n        /* \"#utility.yul\":525:530   */\n      dup3\n        /* \"#utility.yul\":521:575   */\n      and\n        /* \"#utility.yul\":510:575   */\n      swap1\n      pop\n        /* \"#utility.yul\":455:581   */\n      swap2\n      swap1\n      pop\n      jump\t// out\n        /* \"#utility.yul\":587:683   */\n    tag_47:\n        /* \"#utility.yul\":624:631   */\n      0x00\n        /* \"#utility.yul\":653:677   */\n      tag_65\n        /* \"#utility.yul\":671:676   */\n      dup3\n        /* \"#utility.yul\":653:677   */\n      tag_46\n      jump\t// in\n    tag_65:\n        /* \"#utility.yul\":642:677   */\n      swap1\n      pop\n        /* \"#utility.yul\":587:683   */\n      swap2\n      swap1\n      pop\n      jump\t// out\n        /* \"#utility.yul\":689:797   */\n    tag_48:\n        /* \"#utility.yul\":766:790   */\n      tag_67\n        /* \"#utility.yul\":784:789   */\n      dup2\n        /* \"#utility.yul\":766:790   */\n      tag_47\n      jump\t// in\n    tag_67:\n        /* \"#utility.yul\":761:764   */\n      dup3\n        /* \"#utility.yul\":754:791   */\n      mstore\n        /* \"#utility.yul\":689:797   */\n      pop\n      pop\n      jump\t// out\n        /* \"#utility.yul\":803:982   */\n    tag_49:\n        /* \"#utility.yul\":872:882   */\n      0x00\n        /* \"#utility.yul\":893:939   */\n      tag_69\n        /* \"#utility.yul\":935:938   */\n      dup4\n        /* \"#utility.yul\":927:933   */\n      dup4\n        /* \"#utility.yul\":893:939   */\n      tag_48\n      jump\t// in\n    tag_69:\n        /* \"#utility.yul\":971:975   */\n      0x20\n        /* \"#utility.yul\":966:969   */\n      dup4\n        /* \"#utility.yul\":962:976   */\n      add\n        /* \"#utility.yul\":948:976   */\n      swap1\n      pop\n        /* \"#utility.yul\":803:982   */\n      swap3\n      swap2\n      pop\n      pop\n      jump\t// out\n        /* \"#utility.yul\":988:1101   */\n    tag_50:\n        /* \"#utility.yul\":1058:1062   */\n      0x00\n        /* \"#utility.yul\":1090:1094   */\n      0x20\n        /* \"#utility.yul\":1085:1088   */\n      dup3\n        /* \"#utility.yul\":1081:1095   */\n      add\n        /* \"#utility.yul\":1073:1095   */\n      swap1\n      pop\n        /* \"#utility.yul\":988:1101   */\n      swap2\n      swap1\n      pop\n      jump\t// out\n        /* \"#utility.yul\":1137:1869   */\n    tag_51:\n        /* \"#utility.yul\":1256:1259   */\n      0x00\n        /* \"#utility.yul\":1285:1339   */\n      tag_72\n        /* \"#utility.yul\":1333:1338   */\n      dup3\n        /* \"#utility.yul\":1285:1339   */\n      tag_43\n      jump\t// in\n    tag_72:\n        /* \"#utility.yul\":1355:1441   */\n      tag_73\n        /* \"#utility.yul\":1434:1440   */\n      dup2\n        /* \"#utility.yul\":1429:1432   */\n      dup6\n        /* \"#utility.yul\":1355:1441   */\n      tag_44\n      jump\t// in\n    tag_73:\n        /* \"#utility.yul\":1348:1441   */\n      swap4\n      pop\n        /* \"#utility.yul\":1465:1521   */\n      tag_74\n        /* \"#utility.yul\":1515:1520   */\n      dup4\n        /* \"#utility.yul\":1465:1521   */\n      tag_45\n      jump\t// in\n    tag_74:\n        /* \"#utility.yul\":1544:1551   */\n      dup1\n        /* \"#utility.yul\":1575:1576   */\n      0x00\n        /* \"#utility.yul\":1560:1844   */\n    tag_75:\n        /* \"#utility.yul\":1585:1591   */\n      dup4\n        /* \"#utility.yul\":1582:1583   */\n      dup2\n        /* \"#utility.yul\":1579:1592   */\n      lt\n        /* \"#utility.yul\":1560:1844   */\n      iszero\n      tag_77\n      jumpi\n        /* \"#utility.yul\":1661:1667   */\n      dup2\n        /* \"#utility.yul\":1655:1668   */\n      mload\n        /* \"#utility.yul\":1688:1751   */\n      tag_78\n        /* \"#utility.yul\":1747:1750   */\n      dup9\n        /* \"#utility.yul\":1732:1745   */\n      dup3\n        /* \"#utility.yul\":1688:1751   */\n      tag_49\n      jump\t// in\n    tag_78:\n        /* \"#utility.yul\":1681:1751   */\n      swap8\n      pop\n        /* \"#utility.yul\":1774:1834   */\n      tag_79\n        /* \"#utility.yul\":1827:1833   */\n      dup4\n        /* \"#utility.yul\":1774:1834   */\n      tag_50\n      jump\t// in\n    tag_79:\n        /* \"#utility.yul\":1764:1834   */\n      swap3\n      pop\n        /* \"#utility.yul\":1620:1844   */\n      pop\n        /* \"#utility.yul\":1607:1608   */\n      0x01\n        /* \"#utility.yul\":1604:1605   */\n      dup2\n        /* \"#utility.yul\":1600:1609   */\n      add\n        /* \"#utility.yul\":1595:1609   */\n      swap1\n      pop\n        /* \"#utility.yul\":1560:1844   */\n      jump(tag_75)\n    tag_77:\n        /* \"#utility.yul\":1564:1578   */\n      pop\n        /* \"#utility.yul\":1860:1863   */\n      dup6\n        /* \"#utility.yul\":1853:1863   */\n      swap4\n      pop\n        /* \"#utility.yul\":1261:1869   */\n      pop\n      pop\n      pop\n        /* \"#utility.yul\":1137:1869   */\n      swap3\n      swap2\n      pop\n      pop\n      jump\t// out\n        /* \"#utility.yul\":1875:2248   */\n    tag_9:\n        /* \"#utility.yul\":2018:2022   */\n      0x00\n        /* \"#utility.yul\":2056:2058   */\n      0x20\n        /* \"#utility.yul\":2045:2054   */\n      dup3\n        /* \"#utility.yul\":2041:2059   */\n      add\n        /* \"#utility.yul\":2033:2059   */\n      swap1\n      pop\n        /* \"#utility.yul\":2105:2114   */\n      dup2\n        /* \"#utility.yul\":2099:2103   */\n      dup2\n        /* \"#utility.yul\":2095:2115   */\n      sub\n        /* \"#utility.yul\":2091:2092   */\n      0x00\n        /* \"#utility.yul\":2080:2089   */\n      dup4\n        /* \"#utility.yul\":2076:2093   */\n      add\n        /* \"#utility.yul\":2069:2116   */\n      mstore\n        /* \"#utility.yul\":2133:2241   */\n      tag_81\n        /* \"#utility.yul\":2236:2240   */\n      dup2\n        /* \"#utility.yul\":2227:2233   */\n      dup5\n        /* \"#utility.yul\":2133:2241   */\n      tag_51\n      jump\t// in\n    tag_81:\n        /* \"#utility.yul\":2125:2241   */\n      swap1\n      pop\n        /* \"#utility.yul\":1875:2248   */\n      swap3\n      swap2\n      pop\n      pop\n      jump\t// out\n        /* \"#utility.yul\":2335:2452   */\n    tag_53:\n        /* \"#utility.yul\":2444:2445   */\n      0x00\n        /* \"#utility.yul\":2441:2442   */\n      dup1\n        /* \"#utility.yul\":2434:2446   */\n      revert\n        /* \"#utility.yul\":2581:2703   */\n    tag_55:\n        /* \"#utility.yul\":2654:2678   */\n      tag_86\n        /* \"#utility.yul\":2672:2677   */\n      dup2\n        /* \"#utility.yul\":2654:2678   */\n      tag_47\n      jump\t// in\n    tag_86:\n        /* \"#utility.yul\":2647:2652   */\n      dup2\n        /* \"#utility.yul\":2644:2679   */\n      eq\n        /* \"#utility.yul\":2634:2697   */\n      tag_87\n      jumpi\n        /* \"#utility.yul\":2693:2694   */\n      0x00\n        /* \"#utility.yul\":2690:2691   */\n      dup1\n        /* \"#utility.yul\":2683:2695   */\n      revert\n        /* \"#utility.yul\":2634:2697   */\n    tag_87:\n        /* \"#utility.yul\":2581:2703   */\n      pop\n      jump\t// out\n        /* \"#utility.yul\":2709:2848   */\n    tag_56:\n        /* \"#utility.yul\":2755:2760   */\n      0x00\n        /* \"#utility.yul\":2793:2799   */\n      dup2\n        /* \"#utility.yul\":2780:2800   */\n      calldataload\n        /* \"#utility.yul\":2771:2800   */\n      swap1\n      pop\n        /* \"#utility.yul\":2809:2842   */\n      tag_89\n        /* \"#utility.yul\":2836:2841   */\n      dup2\n        /* \"#utility.yul\":2809:2842   */\n      tag_55\n      jump\t// in\n    tag_89:\n        /* \"#utility.yul\":2709:2848   */\n      swap3\n      swap2\n      pop\n      pop\n      jump\t// out\n        /* \"#utility.yul\":2854:3183   */\n    tag_12:\n        /* \"#utility.yul\":2913:2919   */\n      0x00\n        /* \"#utility.yul\":2962:2964   */\n      0x20\n        /* \"#utility.yul\":2950:2959   */\n      dup3\n        /* \"#utility.yul\":2941:2948   */\n      dup5\n        /* \"#utility.yul\":2937:2960   */\n      sub\n        /* \"#utility.yul\":2933:2965   */\n      slt\n        /* \"#utility.yul\":2930:3049   */\n      iszero\n      tag_91\n      jumpi\n        /* \"#utility.yul\":2968:3047   */\n      tag_92\n      tag_53\n      jump\t// in\n    tag_92:\n        /* \"#utility.yul\":2930:3049   */\n    tag_91:\n        /* \"#utility.yul\":3088:3089   */\n      0x00\n        /* \"#utility.yul\":3113:3166   */\n      tag_93\n        /* \"#utility.yul\":3158:3165   */\n      dup5\n        /* \"#utility.yul\":3149:3155   */\n      dup3\n        /* \"#utility.yul\":3138:3147   */\n      dup6\n        /* \"#utility.yul\":3134:3156   */\n      add\n        /* \"#utility.yul\":3113:3166   */\n      tag_56\n      jump\t// in\n    tag_93:\n        /* \"#utility.yul\":3103:3166   */\n      swap2\n      pop\n        /* \"#utility.yul\":3059:3176   */\n      pop\n        /* \"#utility.yul\":2854:3183   */\n      swap3\n      swap2\n      pop\n      pop\n      jump\t// out\n        /* \"#utility.yul\":3189:3369   */\n    tag_28:\n        /* \"#utility.yul\":3237:3314   */\n      0x4e487b7100000000000000000000000000000000000000000000000000000000\n        /* \"#utility.yul\":3234:3235   */\n      0x00\n        /* \"#utility.yul\":3227:3315   */\n      mstore\n        /* \"#utility.yul\":3334:3338   */\n      0x32\n        /* \"#utility.yul\":3331:3332   */\n      0x04\n        /* \"#utility.yul\":3324:3339   */\n      mstore\n        /* \"#utility.yul\":3358:3362   */\n      0x24\n        /* \"#utility.yul\":3355:3356   */\n      0x00\n        /* \"#utility.yul\":3348:3363   */\n      revert\n        /* \"#utility.yul\":3375:3452   */\n    tag_57:\n        /* \"#utility.yul\":3412:3419   */\n      0x00\n        /* \"#utility.yul\":3441:3446   */\n      dup2\n        /* \"#utility.yul\":3430:3446   */\n      swap1\n      pop\n        /* \"#utility.yul\":3375:3452   */\n      swap2\n      swap1\n      pop\n      jump\t// out\n        /* \"#utility.yul\":3458:3638   */\n    tag_58:\n        /* \"#utility.yul\":3506:3583   */\n      0x4e487b7100000000000000000000000000000000000000000000000000000000\n        /* \"#utility.yul\":3503:3504   */\n      0x00\n        /* \"#utility.yul\":3496:3584   */\n      mstore\n        /* \"#utility.yul\":3603:3607   */\n      0x11\n        /* \"#utility.yul\":3600:3601   */\n      0x04\n        /* \"#utility.yul\":3593:3608   */\n      mstore\n        /* \"#utility.yul\":3627:3631   */\n      0x24\n        /* \"#utility.yul\":3624:3625   */\n      0x00\n        /* \"#utility.yul\":3617:3632   */\n      revert\n        /* \"#utility.yul\":3644:3838   */\n    tag_32:\n        /* \"#utility.yul\":3684:3688   */\n      0x00\n        /* \"#utility.yul\":3704:3724   */\n      tag_98\n        /* \"#utility.yul\":3722:3723   */\n      dup3\n        /* \"#utility.yul\":3704:3724   */\n      tag_57\n      jump\t// in\n    tag_98:\n        /* \"#utility.yul\":3699:3724   */\n      swap2\n      pop\n        /* \"#utility.yul\":3738:3758   */\n      tag_99\n        /* \"#utility.yul\":3756:3757   */\n      dup4\n        /* \"#utility.yul\":3738:3758   */\n      tag_57\n      jump\t// in\n    tag_99:\n        /* \"#utility.yul\":3733:3758   */\n      swap3\n      pop\n        /* \"#utility.yul\":3782:3783   */\n      dup3\n        /* \"#utility.yul\":3779:3780   */\n      dup3\n        /* \"#utility.yul\":3775:3784   */\n      sub\n        /* \"#utility.yul\":3767:3784   */\n      swap1\n      pop\n        /* \"#utility.yul\":3806:3807   */\n      dup2\n        /* \"#utility.yul\":3800:3804   */\n      dup2\n        /* \"#utility.yul\":3797:3808   */\n      gt\n        /* \"#utility.yul\":3794:3831   */\n      iszero\n      tag_100\n      jumpi\n        /* \"#utility.yul\":3811:3829   */\n      tag_101\n      tag_58\n      jump\t// in\n    tag_101:\n        /* \"#utility.yul\":3794:3831   */\n    tag_100:\n        /* \"#utility.yul\":3644:3838   */\n      swap3\n      swap2\n      pop\n      pop\n      jump\t// out\n        /* \"#utility.yul\":3844:4024   */\n    tag_41:\n        /* \"#utility.yul\":3892:3969   */\n      0x4e487b7100000000000000000000000000000000000000000000000000000000\n        /* \"#utility.yul\":3889:3890   */\n      0x00\n        /* \"#utility.yul\":3882:3970   */\n      mstore\n        /* \"#utility.yul\":3989:3993   */\n      0x31\n        /* \"#utility.yul\":3986:3987   */\n      0x04\n        /* \"#utility.yul\":3979:3994   */\n      mstore\n        /* \"#utility.yul\":4013:4017   */\n      0x24\n        /* \"#utility.yul\":4010:4011   */\n      0x00\n        /* \"#utility.yul\":4003:4018   */\n      revert\n\n    auxdata: 0xa2646970667358221220f03be5b50aa5b356959a20ce6387329c077df9cd3b0909c224c9d8b08619804e64736f6c634300081a0033\n}\n",
				"bytecode": {
					"linkReferences": {},
					"object": "6080604052348015600e575f80fd5b506105548061001c5f395ff3fe608060405234801561000f575f80fd5b506004361061003e575f3560e01c8062ce8e3e14610042578063421b2d8b14610060578063985751881461007c575b5f80fd5b61004a610098565b60405161005791906103e2565b60405180910390f35b61007a60048036038101906100759190610430565b610122565b005b61009660048036038101906100919190610430565b610184565b005b60605f80548060200260200160405190810160405280929190818152602001828054801561011857602002820191905f5260205f20905b815f9054906101000a900473ffffffffffffffffffffffffffffffffffffffff1673ffffffffffffffffffffffffffffffffffffffff16815260200190600101908083116100cf575b5050505050905090565b5f81908060018154018082558091505060019003905f5260205f20015f9091909190916101000a81548173ffffffffffffffffffffffffffffffffffffffff021916908373ffffffffffffffffffffffffffffffffffffffff16021790555050565b5f5b5f805490508110156102f7578173ffffffffffffffffffffffffffffffffffffffff165f82815481106101bc576101bb61045b565b5b905f5260205f20015f9054906101000a900473ffffffffffffffffffffffffffffffffffffffff1673ffffffffffffffffffffffffffffffffffffffff16036102ea575f60015f8054905061021191906104be565b815481106102225761022161045b565b5b905f5260205f20015f9054906101000a900473ffffffffffffffffffffffffffffffffffffffff165f828154811061025d5761025c61045b565b5b905f5260205f20015f6101000a81548173ffffffffffffffffffffffffffffffffffffffff021916908373ffffffffffffffffffffffffffffffffffffffff1602179055505f8054806102b3576102b26104f1565b5b600190038181905f5260205f20015f6101000a81549073ffffffffffffffffffffffffffffffffffffffff021916905590556102f7565b8080600101915050610186565b5050565b5f81519050919050565b5f82825260208201905092915050565b5f819050602082019050919050565b5f73ffffffffffffffffffffffffffffffffffffffff82169050919050565b5f61034d82610324565b9050919050565b61035d81610343565b82525050565b5f61036e8383610354565b60208301905092915050565b5f602082019050919050565b5f610390826102fb565b61039a8185610305565b93506103a583610315565b805f5b838110156103d55781516103bc8882610363565b97506103c78361037a565b9250506001810190506103a8565b5085935050505092915050565b5f6020820190508181035f8301526103fa8184610386565b905092915050565b5f80fd5b61040f81610343565b8114610419575f80fd5b50565b5f8135905061042a81610406565b92915050565b5f6020828403121561044557610444610402565b5b5f6104528482850161041c565b91505092915050565b7f4e487b71000000000000000000000000000000000000000000000000000000005f52603260045260245ffd5b5f819050919050565b7f4e487b71000000000000000000000000000000000000000000000000000000005f52601160045260245ffd5b5f6104c882610488565b91506104d383610488565b92508282039050818111156104eb576104ea610491565b5b92915050565b7f4e487b71000000000000000000000000000000000000000000000000000000005f52603160045260245ffdfea2646970667358221220f03be5b50aa5b356959a20ce6387329c077df9cd3b0909c224c9d8b08619804e64736f6c634300081a0033",
					"opcodes": "PUSH1 0x80 PUSH1 0x40 MSTORE CALLVALUE DUP1 ISZERO PUSH1 0xE JUMPI PUSH0 DUP1 REVERT JUMPDEST POP PUSH2 0x554 DUP1 PUSH2 0x1C PUSH0 CODECOPY PUSH0 RETURN INVALID PUSH1 0x80 PUSH1 0x40 MSTORE CALLVALUE DUP1 ISZERO PUSH2 0xF JUMPI PUSH0 DUP1 REVERT JUMPDEST POP PUSH1 0x4 CALLDATASIZE LT PUSH2 0x3E JUMPI PUSH0 CALLDATALOAD PUSH1 0xE0 SHR DUP1 PUSH3 0xCE8E3E EQ PUSH2 0x42 JUMPI DUP1 PUSH4 0x421B2D8B EQ PUSH2 0x60 JUMPI DUP1 PUSH4 0x98575188 EQ PUSH2 0x7C JUMPI JUMPDEST PUSH0 DUP1 REVERT JUMPDEST PUSH2 0x4A PUSH2 0x98 JUMP JUMPDEST PUSH1 0x40 MLOAD PUSH2 0x57 SWAP2 SWAP1 PUSH2 0x3E2 JUMP JUMPDEST PUSH1 0x40 MLOAD DUP1 SWAP2 SUB SWAP1 RETURN JUMPDEST PUSH2 0x7A PUSH1 0x4 DUP1 CALLDATASIZE SUB DUP2 ADD SWAP1 PUSH2 0x75 SWAP2 SWAP1 PUSH2 0x430 JUMP JUMPDEST PUSH2 0x122 JUMP JUMPDEST STOP JUMPDEST PUSH2 0x96 PUSH1 0x4 DUP1 CALLDATASIZE SUB DUP2 ADD SWAP1 PUSH2 0x91 SWAP2 SWAP1 PUSH2 0x430 JUMP JUMPDEST PUSH2 0x184 JUMP JUMPDEST STOP JUMPDEST PUSH1 0x60 PUSH0 DUP1 SLOAD DUP1 PUSH1 0x20 MUL PUSH1 0x20 ADD PUSH1 0x40 MLOAD SWAP1 DUP2 ADD PUSH1 0x40 MSTORE DUP1 SWAP3 SWAP2 SWAP1 DUP2 DUP2 MSTORE PUSH1 0x20 ADD DUP3 DUP1 SLOAD DUP1 ISZERO PUSH2 0x118 JUMPI PUSH1 0x20 MUL DUP3 ADD SWAP2 SWAP1 PUSH0 MSTORE PUSH1 0x20 PUSH0 KECCAK256 SWAP1 JUMPDEST DUP2 PUSH0 SWAP1 SLOAD SWAP1 PUSH2 0x100 EXP SWAP1 DIV PUSH20 0xFFFFFFFFFFFFFFFFFFFFFFFFFFFFFFFFFFFFFFFF AND PUSH20 0xFFFFFFFFFFFFFFFFFFFFFFFFFFFFFFFFFFFFFFFF AND DUP2 MSTORE PUSH1 0x20 ADD SWAP1 PUSH1 0x1 ADD SWAP1 DUP1 DUP4 GT PUSH2 0xCF JUMPI JUMPDEST POP POP POP POP POP SWAP1 POP SWAP1 JUMP JUMPDEST PUSH0 DUP2 SWAP1 DUP1 PUSH1 0x1 DUP2 SLOAD ADD DUP1 DUP3 SSTORE DUP1 SWAP2 POP POP PUSH1 0x1 SWAP1 SUB SWAP1 PUSH0 MSTORE PUSH1 0x20 PUSH0 KECCAK256 ADD PUSH0 SWAP1 SWAP2 SWAP1 SWAP2 SWAP1 SWAP2 PUSH2 0x100 EXP DUP2 SLOAD DUP2 PUSH20 0xFFFFFFFFFFFFFFFFFFFFFFFFFFFFFFFFFFFFFFFF MUL NOT AND SWAP1 DUP4 PUSH20 0xFFFFFFFFFFFFFFFFFFFFFFFFFFFFFFFFFFFFFFFF AND MUL OR SWAP1 SSTORE POP POP JUMP JUMPDEST PUSH0 JUMPDEST PUSH0 DUP1 SLOAD SWAP1 POP DUP2 LT ISZERO PUSH2 0x2F7 JUMPI DUP2 PUSH20 0xFFFFFFFFFFFFFFFFFFFFFFFFFFFFFFFFFFFFFFFF AND PUSH0 DUP3 DUP2 SLOAD DUP2 LT PUSH2 0x1BC JUMPI PUSH2 0x1BB PUSH2 0x45B JUMP JUMPDEST JUMPDEST SWAP1 PUSH0 MSTORE PUSH1 0x20 PUSH0 KECCAK256 ADD PUSH0 SWAP1 SLOAD SWAP1 PUSH2 0x100 EXP SWAP1 DIV PUSH20 0xFFFFFFFFFFFFFFFFFFFFFFFFFFFFFFFFFFFFFFFF AND PUSH20 0xFFFFFFFFFFFFFFFFFFFFFFFFFFFFFFFFFFFFFFFF AND SUB PUSH2 0x2EA JUMPI PUSH0 PUSH1 0x1 PUSH0 DUP1 SLOAD SWAP1 POP PUSH2 0x211 SWAP2 SWAP1 PUSH2 0x4BE JUMP JUMPDEST DUP2 SLOAD DUP2 LT PUSH2 0x222 JUMPI PUSH2 0x221 PUSH2 0x45B JUMP JUMPDEST JUMPDEST SWAP1 PUSH0 MSTORE PUSH1 0x20 PUSH0 KECCAK256 ADD PUSH0 SWAP1 SLOAD SWAP1 PUSH2 0x100 EXP SWAP1 DIV PUSH20 0xFFFFFFFFFFFFFFFFFFFFFFFFFFFFFFFFFFFFFFFF AND PUSH0 DUP3 DUP2 SLOAD DUP2 LT PUSH2 0x25D JUMPI PUSH2 0x25C PUSH2 0x45B JUMP JUMPDEST JUMPDEST SWAP1 PUSH0 MSTORE PUSH1 0x20 PUSH0 KECCAK256 ADD PUSH0 PUSH2 0x100 EXP DUP2 SLOAD DUP2 PUSH20 0xFFFFFFFFFFFFFFFFFFFFFFFFFFFFFFFFFFFFFFFF MUL NOT AND SWAP1 DUP4 PUSH20 0xFFFFFFFFFFFFFFFFFFFFFFFFFFFFFFFFFFFFFFFF AND MUL OR SWAP1 SSTORE POP PUSH0 DUP1 SLOAD DUP1 PUSH2 0x2B3 JUMPI PUSH2 0x2B2 PUSH2 0x4F1 JUMP JUMPDEST JUMPDEST PUSH1 0x1 SWAP1 SUB DUP2 DUP2 SWAP1 PUSH0 MSTORE PUSH1 0x20 PUSH0 KECCAK256 ADD PUSH0 PUSH2 0x100 EXP DUP2 SLOAD SWAP1 PUSH20 0xFFFFFFFFFFFFFFFFFFFFFFFFFFFFFFFFFFFFFFFF MUL NOT AND SWAP1 SSTORE SWAP1 SSTORE PUSH2 0x2F7 JUMP JUMPDEST DUP1 DUP1 PUSH1 0x1 ADD SWAP2 POP POP PUSH2 0x186 JUMP JUMPDEST POP POP JUMP JUMPDEST PUSH0 DUP2 MLOAD SWAP1 POP SWAP2 SWAP1 POP JUMP JUMPDEST PUSH0 DUP3 DUP3 MSTORE PUSH1 0x20 DUP3 ADD SWAP1 POP SWAP3 SWAP2 POP POP JUMP JUMPDEST PUSH0 DUP2 SWAP1 POP PUSH1 0x20 DUP3 ADD SWAP1 POP SWAP2 SWAP1 POP JUMP JUMPDEST PUSH0 PUSH20 0xFFFFFFFFFFFFFFFFFFFFFFFFFFFFFFFFFFFFFFFF DUP3 AND SWAP1 POP SWAP2 SWAP1 POP JUMP JUMPDEST PUSH0 PUSH2 0x34D DUP3 PUSH2 0x324 JUMP JUMPDEST SWAP1 POP SWAP2 SWAP1 POP JUMP JUMPDEST PUSH2 0x35D DUP2 PUSH2 0x343 JUMP JUMPDEST DUP3 MSTORE POP POP JUMP JUMPDEST PUSH0 PUSH2 0x36E DUP4 DUP4 PUSH2 0x354 JUMP JUMPDEST PUSH1 0x20 DUP4 ADD SWAP1 POP SWAP3 SWAP2 POP POP JUMP JUMPDEST PUSH0 PUSH1 0x20 DUP3 ADD SWAP1 POP SWAP2 SWAP1 POP JUMP JUMPDEST PUSH0 PUSH2 0x390 DUP3 PUSH2 0x2FB JUMP JUMPDEST PUSH2 0x39A DUP2 DUP6 PUSH2 0x305 JUMP JUMPDEST SWAP4 POP PUSH2 0x3A5 DUP4 PUSH2 0x315 JUMP JUMPDEST DUP1 PUSH0 JUMPDEST DUP4 DUP2 LT ISZERO PUSH2 0x3D5 JUMPI DUP2 MLOAD PUSH2 0x3BC DUP9 DUP3 PUSH2 0x363 JUMP JUMPDEST SWAP8 POP PUSH2 0x3C7 DUP4 PUSH2 0x37A JUMP JUMPDEST SWAP3 POP POP PUSH1 0x1 DUP2 ADD SWAP1 POP PUSH2 0x3A8 JUMP JUMPDEST POP DUP6 SWAP4 POP POP POP POP SWAP3 SWAP2 POP POP JUMP JUMPDEST PUSH0 PUSH1 0x20 DUP3 ADD SWAP1 POP DUP2 DUP2 SUB PUSH0 DUP4 ADD MSTORE PUSH2 0x3FA DUP2 DUP5 PUSH2 0x386 JUMP JUMPDEST SWAP1 POP SWAP3 SWAP2 POP POP JUMP JUMPDEST PUSH0 DUP1 REVERT JUMPDEST PUSH2 0x40F DUP2 PUSH2 0x343 JUMP JUMPDEST DUP2 EQ PUSH2 0x419 JUMPI PUSH0 DUP1 REVERT JUMPDEST POP JUMP JUMPDEST PUSH0 DUP2 CALLDATALOAD SWAP1 POP PUSH2 0x42A DUP2 PUSH2 0x406 JUMP JUMPDEST SWAP3 SWAP2 POP POP JUMP JUMPDEST PUSH0 PUSH1 0x20 DUP3 DUP5 SUB SLT ISZERO PUSH2 0x445 JUMPI PUSH2 0x444 PUSH2 0x402 JUMP JUMPDEST JUMPDEST PUSH0 PUSH2 0x452 DUP5 DUP3 DUP6 ADD PUSH2 0x41C JUMP JUMPDEST SWAP2 POP POP SWAP3 SWAP2 POP POP JUMP JUMPDEST PUSH32 0x4E487B7100000000000000000000000000000000000000000000000000000000 PUSH0 MSTORE PUSH1 0x32 PUSH1 0x4 MSTORE PUSH1 0x24 PUSH0 REVERT JUMPDEST PUSH0 DUP2 SWAP1 POP SWAP2 SWAP1 POP JUMP JUMPDEST PUSH32 0x4E487B7100000000000000000000000000000000000000000000000000000000 PUSH0 MSTORE PUSH1 0x11 PUSH1 0x4 MSTORE PUSH1 0x24 PUSH0 REVERT JUMPDEST PUSH0 PUSH2 0x4C8 DUP3 PUSH2 0x488 JUMP JUMPDEST SWAP2 POP PUSH2 0x4D3 DUP4 PUSH2 0x488 JUMP JUMPDEST SWAP3 POP DUP3 DUP3 SUB SWAP1 POP DUP2 DUP2 GT ISZERO PUSH2 0x4EB JUMPI PUSH2 0x4EA PUSH2 0x491 JUMP JUMPDEST JUMPDEST SWAP3 SWAP2 POP POP JUMP JUMPDEST PUSH32 0x4E487B7100000000000000000000000000000000000000000000000000000000 PUSH0 MSTORE PUSH1 0x31 PUSH1 0x4 MSTORE PUSH1 0x24 PUSH0 REVERT INVALID LOG2 PUSH5 0x6970667358 0x22 SLT KECCAK256 CREATE EXTCODESIZE 0xE5 0xB5 EXP 0xA5 0xB3 JUMP SWAP6 SWAP11 KECCAK256 0xCE PUSH4 0x87329C07 PUSH30 0xF9CD3B0909C224C9D8B08619804E64736F6C634300081A00330000000000 "
				},
				"gasEstimates": {
					"creation": {
						"codeDepositCost": "272800",
						"executionCost": "310",
						"totalCost": "273110"
					},
					"external": {
						"addUser(address)": "49024",
						"getUsers()": "infinite",
						"removeUser(address)": "infinite"
					}
				},
				"methodIdentifiers": {
					"addUser(address)": "421b2d8b",
					"getUsers()": "00ce8e3e",
					"removeUser(address)": "98575188"
				}
			},
			"storageLayout": {
				"storage": [
					{
						"astId": 4,
						"contract": "UserManager.sol:UserManager",
						"label": "users",
						"offset": 0,
						"slot": "0",
						"type": "t_array(t_address)dyn_storage"
					}
				],
				"types": {
					"t_address": {
						"encoding": "inplace",
						"label": "address",
						"numberOfBytes": "20"
					},
					"t_array(t_address)dyn_storage": {
						"base": "t_address",
						"encoding": "dynamic_array",
						"label": "address[]",
						"numberOfBytes": "32"
					}
				}
			},
			"userdoc": {
				"kind": "user",
				"methods": {},
				"version": 1
			}
		}
	}
}